:1008F300446972656374696F6E3A2000466F72775C
:100903006172640D0A00526576657273650D0A00A3
:1009130053706565643A20000D0A004D6F746F7261
:100923003A2053544F500D0A004D6F746F723A20A2
:1009330052554E0D0A003D3D3D3D3D204D4F544F18
:100943005220535441545553203D3D3D3D3D0D0AE6
:10095300004D6F746F723A200052554E0D0A0053CA
:10096300544F500D0A0053504545443A20003D3D35
:100973003D3D3D3D3D3D3D3D3D3D3D3D3D3D3D3DA4
:090983003D3D3D3D3D3D0D0A00E6
:100C0600020D00C8C180C181010A00010B00010C60
:070C160000010900010800C4
:100BB200AF0EAE0D120BC5C290D291D292D293AFAC
:030BC2000EAE0D67
:0B0BC500EF1FAC0670011E4C70F62202
:100B7100D290C291120BBDD290D291D292C2931255
:100B81000BB2D290D291C292D293AF0EAE0D020BA4
:010B9100C59E
:100B4C00D290D291C292D293120BB2D290D291D2B5
:100B5C0092C293120BC1D290C291D292D293AF0E89
:050B6C00AE0D020BC5F7
:090C2C00C290C291C292C293224F
:100BD00053890F438920759850758780758DFA75F4
:0D0BE0008BFAC299C298D2ACD2AFD28E224D
:0E0C1E00C2ACC2998F993099FDC299D2AC2216
:060BED007BFF7A09791B71
:100BF300120A18FF600C120C1E740129F9E43AFA68
:030C030080EE225E
:0D0A86007A0979137BFF120BF3AF0EAE0D52
:040A9300AB07AA06FD
:100A9700E4F515EB4A70057F30020C1ED3EB94008A
:100AA700EA9400402A7C007D0AAF03AE02120A31A5
:100AB700ED2430FFAE150515740F2EF8A6077C0040
:100AC7007D0AAF03AE02120A31AA06AB0780CDE555
:100AD70015D39400400E1515740F2515F8E6FF126F
:040AE7000C1E80EB76
:010AEB0022E8
:10080000E50AD394004026300004C2008002D200E2
:10081000150A7BFF7A0879F3120BF33000067A0889
:1008200079FF80067BFF7A097909120BF3E50BD378
:100830009400401EE50E948CE50D9400400C74E28B
:10084000250EF50E74FF350DF50D150B120A8612E7
:100850000BEDE50CD39400401ED3E50E94DCE50DC2
:100860009400500B741E250EF50EE4350DF50D1594
:100870000C120A86120BEDE509D39400401D3001DD
:100880000DC201120C2C7BFF7A09791E8008D2015F
:100890007BFF7A09792C120BF31509E508D3940034
:1008A000405015087BFF7A097939120BF37A0979E0
:1008B00054120BF33001067A09795C80067BFF7ACB
:1008C000097962120BF37BFF7A0879F3120BF3308C
:1008D00000067A0879FF80067BFF7A097909120BF6
:1008E000F37A097969120A8A120BED7A0979711281
:0308F0000BF322E5
:03002300020AECE2
:090AEC00C0E0C0D075D000C007C5
:100AF50030984DC298AF99BF310BE50AC394FA50AF
:100B05003F050A803BBF320BE50BC394FA50310514
:100B15000B802DBF330BE50CC394FA5023050C80D5
:100B25001FBF300BE509C394FA501505098011EF75
:100B350064736003BF5309E508C394FA50020508BE
:070B4500D007D0D0D0E03250
:100B9200E4F590120BD0D20112080030010D3000A2
:100BA20005120B7180F2120B4C80ED120C2C80E8B6
:0300000002098C66
:0C098C00787FE4F6D8FD7581200209D3C5
:100A1800BB010689828A83E0225002E722BBFE02DC
:090A2800E32289828A83E493220F
:100A3100BC000BBE0029EF8DF084FFADF022E4CCA9
:100A4100F875F008EF2FFFEE33FEEC33FCEE9DEC72
:100A5100984005FCEE9DFE0FD5F0E9E4CEFD22EDB8
:100A6100F8F5F0EE8420D21CFEADF075F008EF2F02
:100A7100FFED33FD4007985006D5F0F222C398FDF3
:050A81000FD5F0EA2290
:10099800020B92E493A3F8E493A34003F68001F2D8
:1009A80008DFF48029E493A3F85407240CC8C33360
:1009B800C4540F4420C8834004F456800146F6DF2F
:1009C800E4800B0102040810204080900C06E47EAD
:1009D800019360BCA3FF543F30E509541FFEE49324
:1009E800A360010ECF54C025E060A840B8E493A3EB
:1009F800FAE493A3F8E493A3C8C582C8CAC583CA16
:100A0800F0A3C8C582C8CAC583CADFE9DEE780BECD
:010C1D0000D6
:00000001FF
