:03000000020CDB14
:0C0CDB00787FE4F6D8FD758149020D22F7
:100C4D004552524F52204F564552464C4F570D0A62
:100C5D0000434D443A000D0A005345545F504F5325
:100C6D0020004F4B205345545F504F530D0A0053F6
:100C7D0045545F56454C20004552524F5220564523
:100C8D004C0D0A004F4B205345545F56454C0D0AF1
:100C9D00004745545F504F5300504F533A0047455E
:100CAD00545F56454C0056454C3A005354415455EB
:100CBD0053005441524745543A0020504F533A0087
:0E0CCD002056454C3A004552524F520D0A0037
:100F120002480000024500000243000102410000B5
:0B0F2200014700C101C10002210000D6
:100F2E00438920759850758780758DFA758BFAD226
:060F3E00ACD2AFD28E22FE
:100F44005389F0438901758CDCE4F58AD2A9D2AFC8
:030F5400D28C221A
:0A0F7A00C2998F993099FDC29922A7
:100F5700120800FF600C120F7A740129F9E43AFABB
:030F670080EE22F7
:090D67007BFF120F57AF46AE45A9
:040D7000AB07AA061D
:100D7400E4F512EB4A70057F30020F7AC3EA64800F
:100D84009480500C7F2D120F7AC3E49BFBE49AFAF3
:100D9400D3EB9400EA64809480402A7C007D0AAFFF
:100DA40003AE0212082BED2430FFAE120512740AB2
:100DB4002EF8A6077C007D0AAF03AE0212082BAA08
:100DC40006AB0780CBE512D39400400E1512740ACB
:0A0DD4002512F8E6FF120F7A80EBFB
:010DDE0022F2
:060DDF008B0A8A0B890C4F
:100DE500E4F50DF50EC202120800B42D04D20280FE
:100DF50039AB0AAA0BA90C120800FFC3648094B092
:100E05004035D3EF648094B9502DEF3395E0FEEF74
:100E150024D0FBEE34FFFAAE0DAF0E7C007D0A1236
:100E25000819EF2BF50EEE3AF50D7401250CF50CAE
:100E3500E4350BF50B80BA30020BC3E4950EF50EC5
:090E4500E4950DF50DAE0DAF0EA4
:010E4E002281
:100A510030000C7BFF7A0C794D120F57C200227BBC
:100A6100FF7A0C795E120F577B007A007923120FFF
:100A7100577BFF7A0C7963120F578B0D750E0C752E
:100A81000F667510007511087B007A007923120E2C
:100A91004FEF701BFB7A00792B120DDF8E088F0947
:100AA1008508488509497BFF7A0C796F020B8875A7
:100AB1000DFF750E0C750F7C7510007511087B000C
:100AC1007A007923120E4FEF702DFB7A00792B12E9
:100AD1000DDF8E088F09C3E5086480948050097B7F
:100AE100FF7A0C7985020B888508438509447BFFD1
:100AF1007A0C7991020B8878237C007D007BFF7A48
:100B01000C799E1209DFEF700F7A0C79A6120D672E
:100B11007BFF7A0C7963806F78237C007D007BFFFB
:100B21007A0C79AB1209DFEF70187BFF7A0C79B37D
:100B3100120F57AF42AE41120D707BFF7A0C7963F1
:100B4100804578237C007D007BFF7A0C79B81209FF
:100B5100DFEF7BFF702D7A0C79BF120F57AF49AED3
:100B610048120D707A0C79C7120D677BFF7A0C79E8
:100B7100CD120F57AF42AE41120D707BFF7A0C7947
:0A0B81006380047A0C79D3120F5739
:010B8B002247
:100F6A00120F2E120F443001FDC201120A5180F6EF
:03000B00020B8C59
:100B8C00C0E0C0D075D000C000758CDC758A000543
:100B9C0022E52270020521C39432E5219400500312
:100BAC00020C46752100752200E5469549E548641E
:100BBC0080F8E545648098502DE5444543700280EB
:100BCC003CE5442546F546E5433545F54585434129
:100BDC00854442C3E5469549E5486480F8E545649B
:100BEC00809840568046D3E5469549E5486480F8A0
:100BFC00E545648098403DE54445437006F541F574
:100C0C00428037C3E5469544F546E5459543F545A1
:100C1C00C3E49544F542E49543F541D3E546954943
:100C2C00E5486480F8E545648098500E8548458514
:100C3C0049468000754100754200D000D0D0D0E00C
:010C4C003275
:03002300020EBE0C
:0D0EBE00C0E0C0D075D000C000C006C00765
:100ECB00309839C298AF99EF640D6003BF0A15E5EE
:100EDB0047D39400402674232547F87600D201753A
:100EEB0047008018200015E547C3941D500CAE47F2
:0C0EFB00054774232EF8A6078002D200E1
:0B0F0700D007D006D000D0D0D0E032E0
:100CE700020F6AE493A3F8E493A34003F68001F2AA
:100CF70008DFF48029E493A3F85407240CC8C3330E
:100D0700C4540F4420C8834004F456800146F6DFDC
:100D1700E4800B0102040810204080900F12E47E4B
:100D2700019360BCA3FF543F30E509541FFEE493D1
:100D3700A360010ECF54C025E060A840B8E493A398
:100D4700FAE493A3F8E493A3C8C582C8CAC583CAC3
:100D5700F0A3C8C582C8CAC583CADFE9DEE780BE7B
:010F2D0000C3
:10080000BB010689828A83E0225002E722BBFE02F6
:09081000E32289828A83E4932229
:10081900EF8DF0A4A8F0CF8CF0A428CE8DF0A42EF3
:02082900FE22AD
:10082B00C2D5EC30E709B2D5E4C39DFDE49CFCEEE8
:10083B0030E715B2D5E4C39FFFE49EFE1209FCC35B
:10084B00E49DFDE49CFC80031209FC30D507C3E456
:06085B009FFFE49EFE2257
:10086100E3F5F009E208B5F06D606B80F3E3F5F0B4
:1008710009E608B5F060605E80F387F009E608B527
:10088100F054605280F487F009E208B5F048604600
:1008910080F488828C8387F009E0A3B5F038603654
:1008A10080F488828C8387F009E493A3B5F02760F4
:1008B1002580F388828C83E3F5F009E0A3B5F01677
:1008C100601480F388828C83E3F5F009E493A3B587
:1008D100F004600280F202098C808580E7808E80BE
:1008E100D2803C8015806C807E809B80B5808B801F
:1008F100A1804F8070803A02099889828A83ECFA3C
:10090100E493F5F0A3C8C582C8CCC583CCE493A316
:10091100C8C582C8CCC583CCB5F070606E80E18952
:10092100828A83E493F5F0A3E208B5F05E605C800F
:10093100F289828A83E0F5F0A3E608B5F04D604BB9
:1009410080F389828A83E0F5F0A3E208B5F03C6088
:100951003A80F389828A83E493F5F0A3E608B5F03F
:100961002A602880F2805389828A83ECFAE493F525
:10097100F0A3C8C582C8CCC583CCE0A3C8C582C8D2
:10098100CCC583CCB5F004600280E27FFFB5F002F4
:100991000F2240027F012289828A83ECFAE0F5F07E
:1009A100A3C8C582C8CCC583CCE0A3C8C582C8CCC6
:1009B100C583CCB5F0D560D380E389828A83ECFA14
:1009C100E0F5F0A3C8C582C8CCC583CCE493A3C825
:1009D100C582C8CCC583CCB5F0B160AF80E288F0E8
:1009E100ED2402B4040050A3F582EB2402B4040008
:0B09F100509923234582239008DA73FD
:100E4F008B0A8A0B890CAB0DAA0EA90F120800FE94
:100E5F00AB0AAA0BA90C120800FF6E702BEF600DE6
:100E6F00E51115117002151014451070037F002243
:100E7F007401250CF50CE4350BF50B7401250FF5FA
:100E8F000FE4350EF50E80BEAB0AAA0BA90C1208A3
:100E9F0000FDD3EE6480F8ED64809840037F01225B
:0F0EAF00AB0DAA0EA90F120800FFC3ED9FFF2283
:1009FC00BC000BBE0029EF8DF084FFADF022E4CCDF
:100A0C00F875F008EF2FFFEE33FEEC33FCEE9DECA7
:100A1C00984005FCEE9DFE0FD5F0E9E4CEFD22EDED
:100A2C00F8F5F0EE8420D21CFEADF075F008EF2F37
:100A3C00FFED33FD4007985006D5F0F222C398FD28
:050A4C000FD5F0EA22C5
:00000001FF
