:06096900020800C8C18075
:10093200AF09AE08120945C290D291D292D293AFBA
:0309420009AE08F3
:0B094500EF1FAC0670011E4C70F62284
:10091100D290C29112093DD290D291D292C2931239
:100921000932D290D291C292D293AF09AE08020994
:010931004580
:1008EC00D290D291C292D293120932D290D291D29A
:1008FC0092C293120941D290C291D292D293AF0973
:05090C00AE08020945E0
:10088C0020B00F7FE87E0312094520B005B200307E
:10089C00B0FD20B1247FE87E0312094520B11AC3B4
:1008AC00E5099450E5089400400C74E22509F5091B
:1008BC0074FF3508F50830B1FD20B2237FE87E03C4
:1008CC0012094520B219D3E50994D6E508940150D4
:1008DC000B741E2509F509E43508F50830B2FD2224
:10095000E4F590D2B0D2B1D2B212088C30000512B8
:09096000091180F51208EC80F089
:03000000020800F3
:0C080000787FE4F6D8FD758120020847DF
:10080C00020950E493A3F8E493A34003F68001F2A9
:10081C0008DFF48029E493A3F85407240CC8C333ED
:10082C00C4540F4420C8834004F456800146F6DFBC
:10083C00E4800B0102040810204080900969E47EDA
:10084C00019360BCA3FF543F30E509541FFEE493B1
:10085C00A360010ECF54C025E060A840B8E493A378
:10086C00FAE493A3F8E493A3C8C582C8CAC583CAA3
:10087C00F0A3C8C582C8CAC583CADFE9DEE780BE5B
:01096F000087
:00000001FF
