:020000040800F2
:10000000280400204901000829030008B50200085F
:10001000F5020008910100088709000800000000AF
:10002000000000000000000000000000A90400081B
:100030009501000800000000B1030008BD0500089C
:100040006301000863010008630100086301000800
:1000500063010008630100086301000863010008F0
:1000600063010008630100086301000863010008E0
:1000700063010008630100086301000863010008D0
:1000800063010008630100086301000863010008C0
:1000900063010008630100086301000863010008B0
:1000A00063010008630100086301000863010008A0
:1000B0006301000863010008630100086301000890
:1000C0006301000863010008630100086301000880
:1000D000630100085D060008630100086301000871
:1000E0006301000863010008630100086301000860
:1000F0006301000863010008630100086301000850
:10010000630100086301000863010008630100083F
:10011000630100086301000863010008630100082F
:10012000630100086301000863010008630100081F
:10013000DFF810D000F01AF800480047F509000871
:10014000AFF3008028040020064880470648004797
:10015000FEE7FEE7FEE7FEE7FEE7FEE7FEE7FEE777
:10016000FEE7FEE7FD05000831010008064C074DDB
:1001700006E0E06840F0010394E807009847103477
:10018000AC42F6D3FFF7D8FF8C0E0008AC0E000887
:1001900000BFFEE770472DE9F0410246002500262A
:1001A000002000230024002791F803C00CF00F0565
:1001B00091F803C00CF0100CBCF1000F03D091F8C3
:1001C00002C04CEA050591F800C0BCF1000F31D027
:1001D000146800202BE04FF0010C0CFA00F3B1F88A
:1001E00000C00CEA03069E4220D183004FF00F0CA2
:1001F0000CFA03F7BC4305FA03FC4CEA040491F83B
:1002000003C0BCF1280F06D14FF0010C0CFA00FC22
:10021000C2F814C00AE091F803C0BCF1480F05D140
:100220004FF0010C0CFA00FCC2F810C0401C08286A
:10023000D1D31460B1F800C0BCF1FF0F34DD5468B5
:1002400000202EE000F1080C4FF0010808FA0CF332
:10025000B1F800C00CEA03069E4221D183004FF0A2
:100260000F0C0CFA03F7BC4305FA03FC4CEA040438
:1002700091F803C0BCF1280F05D100F1080C08FA71
:100280000CF8C2F8148091F803C0BCF1480F07D1F4
:1002900000F1080C4FF0010808FA0CF8C2F81080C1
:1002A000401C0828CED35460BDE8F08141617047FE
:1002B0000161704700BFFEE708B50121042000F08E
:1002C00079F80320ADF8000010208DF8030003201A
:1002D0008DF8020069460648FFF75DFF01210448DA
:1002E000FFF7E4FF02210248FFF7E2FF08BD00002C
:1002F0000008014000BFFEE708B50121042000F01E
:1003000059F80F20ADF8000010208DF803000320ED
:100310008DF8020069460348FFF73DFF00F022FC1C
:1003200008BD0000000801407047000070B50021C2
:1003300000230F22C47804B3154C246804F4E0644D
:10034000C4F5E064210AC1F10403CA40447804FA08
:1003500003F184781440214309010E4C0678A1551D
:10036000047804F01F050124AC4005786D11AD0040
:1003700005F1E025C5F8004109E0047804F01F0507
:100380000124AC40044D0678761145F8264070BD36
:100390000CED00E000E400E080E100E002490143F0
:1003A000024A1160704700000000FA050CED00E001
:1003B0007047000029B1064A92690243044B9A61D2
:1003C00004E0034A92698243014B9A61704700003E
:1003D0000010024030B500210022002400232D4DE2
:1003E0006D6805F00C0121B1042905D0082923D13D
:1003F00005E0294D056022E0274D05601FE0254DF1
:100400006D6805F47012234D6D6805F48034022583
:1004100005EB92421CB9214D554305600BE01D4D83
:100420006D6805F400351DB11C4D5543056002E0B3
:10043000194D5543056002E0174D056000BF00BF30
:10044000144D6D6805F0F0010909154D6B5C0568E8
:10045000DD4045600F4D6D6805F4E061090A104DFF
:100460006B5C4568DD4085600A4D6D6805F4605140
:10047000C90A0B4D6B5C4568DD40C560054D6D6874
:1004800005F44041890B074D6B5CC568B5FBF3F57E
:10049000056130BD0010024000127A0000093D00E5
:1004A0000900002019000020704710B500F002F884
:1004B00010BD00000CB5002001900090334800688A
:1004C00040F480303149086000BF3048006800F4D3
:1004D000003000900198401C0190009818B90198D4
:1004E000B0F5A06FF1D12948006800F4003010B1D8
:1004F0000120009001E0002000900098012843D1E5
:100500002348006840F01000214908600846006850
:1005100020F0030008600846006840F00200086010
:100520001A484068194948600846406848600846CB
:10053000406840F4806048600846406820F47C10C1
:1005400048600846406840F4E81048600846006883
:1005500040F08070086000BF0C48006800F0007038
:100560000028F9D00948406820F003000749486096
:100570000846406840F00200486000BF03484068F9
:1005800000F00C000828F9D10CBD0000001002405A
:1005900000200240042808D14FF0E021096941F011
:1005A00004014FF0E022116107E04FF0E0210969FA
:1005B00021F004014FF0E022116170477047000004
:1005C00010B504466FF00400FFF7E4FFE11704EBF9
:1005D0005171C1F3C701074A11701046007800EB52
:1005E0004001C1EBC0104FF6FF7101EAC0000249A3
:1005F000088010BD1E0000202000002010B5134808
:10060000006840F001001149086008464068104940
:1006100008400E494860084600680E4908400B49EA
:1006200008600846006820F480200860084640689A
:1006300020F4FE0048604FF41F008860FFF735FF8C
:100640004FF000600449086010BD00000010024037
:100650000000FFF8FFFFF6FE08ED00E010B540F2E5
:100660002551234800F0CAF8002840D0204800F067
:1006700081F9C4B2312C09D11E480078FA2836DA43
:100680001C480078401C1B49087030E0322C09D10E
:1006900019480078FA282ADA17480078401C1649C9
:1006A000087024E0332C09D114480078FA281EDAA7
:1006B00012480078401C1149087018E0302C09D10C
:1006C0000F480078FA2812DA0D480078401C0C49CF
:1006D00008700CE0732C01D0532C08D10948007825
:1006E000FA2804DA07480078401C0649087010BD53
:1006F0000038014004000020050000200600002012
:10070000070000200800002010B586B00446012133
:100710000420FFF74FFE01218803FFF74BFE4FF443
:100720000070ADF8140003208DF8160018208DF825
:10073000170005A91E48FFF72EFD4FF48060ADF8A5
:10074000140004208DF8170005A91948FFF723FDB0
:1007500001940020ADF80800ADF80A00ADF80C00D7
:10076000ADF810000C20ADF80E0001A9114800F002
:1007700095F801210F4800F028F840210D4800F0BD
:100780001BF8012240F225510A4800F061F82520AB
:100790008DF8000003208DF801008DF80200012083
:1007A0008DF803006846FFF7C1FD06B010BD0000DC
:1007B000000801400038014001F40072B2F5007FEA
:1007C00000D100BFCA430280704721B1828942F440
:1007D0000052828104E082894DF6FF731A408281C3
:1007E000704702460020B1F5007F00D100BF13889A
:1007F0000B400BB1012000E00020704770B50246AD
:10080000002400230025002040F66A16B14200D1E2
:1008100000BFC1F3421501F01F03012606FA03F3DE
:10082000012D02D19689334006E0022D02D1168AAD
:10083000334001E0968A33400C12012606FA04F494
:100840001688344013B10CB1012000E0002070BDC7
:10085000F0B50346002400260025002040F66A1764
:10086000B94200D100BF1846C1F3421401F01F067F
:10087000012707FA06F5012C01D10C3004E0022C07
:1008800001D1103000E014301AB107682F4307601F
:1008900002E00768AF430760F0BD00002DE9F047B4
:1008A00086B005460E460024A24600BFA14600279A
:1008B000B08900B100BF2F462C8A4CF6FF7004406F
:1008C000F08804432C82AC894EF6F3100440B088C3
:1008D00031890843718908430443AC81AC8A4FF6DF
:1008E000FF400440B0890443AC8201A8FFF772FDC9
:1008F0001F48874202D1DDF810A001E0DDF80CA00E
:10090000A88900F4004040B10AEBCA0000EB0A10CD
:1009100031684900B0FBF1F807E00AEBCA0000EBD0
:100920000A1031688900B0FBF1F86420B8FBF0F0E0
:1009300004012009642101FB1089A88900F400400A
:1009400040B1322000EBC900B0FBF1F000F007002D
:10095000044308E0322000EB09106421B0FBF1F001
:1009600000F00F0004432C8106B0BDE8F0870000C2
:100970000038014001468888C0F308007047C1F381
:1009800008028280704700BFFEE702E008C8121F1D
:1009900008C1002AFAD170477047002001E001C168
:1009A000121F002AFBD170470146114A12784A43B0
:1009B0004FF0E0235A6100229A611A46126942F010
:1009C00001021A6100BF4FF0E022106900F001023D
:1009D0001AB100F48032002AF5D04FF0E0221269FB
:1009E00022F001024FF0E0231A6100229A61704761
:1009F0001E0000204820FFF7E3FD4FF4A060FFF742
:100A0000CDFCFFF759FC4FF41650FFF77DFEFFF7C2
:100A100073FC0120094908700FE000F0B5F80748A1
:100A2000007840B10648007810B100F00BF804E0FF
:100A300000F050F801E000F095F8EEE70300002028
:100A40000200002010B501201F49086000201F4946
:100A5000C1F8840101201C49083108601B49C1F814
:100A60008C011B480088FFF79FFF01201649086092
:100A7000091D0860091D086000201449C1F88C0197
:100A800013480088FFF790FF00200F4908600120FD
:100A9000091D0860091D08600C49C1F88C010C484B
:100AA0000088FFF781FF012007490860091D0860E1
:100AB0000020091D086001200449C1F88C01044888
:100AC0000088FFF771FF10BD800121420000214224
:100AD0000000002010B501201F4908601F49C1F81F
:100AE000840100201C490831086001201B49C1F81D
:100AF0008C011B480088FFF757FF0020164908604B
:100B00000120091D0860091D08601449C1F88C0105
:100B100013480088FFF748FF01200F490860091DAE
:100B20000860091D086000200C49C1F88C010C48C0
:100B30000088FFF739FF0120074908600020091DE0
:100B400008600120091D08600449C1F88C010448AF
:100B50000088FFF729FF10BD8001214200002142DB
:100B6000000000200020064908600649C1F8840101
:100B70000349083108600349C1F88C01704700003F
:100B8000800121420000214210B55D480078002814
:100B900016DD5C48007808B9012000E000205949C2
:100BA000087057480078401E55490870554800782D
:100BB00018B155A000F054F902E059A000F050F926
:100BC0005D480078002823DD5C480088B0F57A7F16
:100BD0000FDD5A480088C838B0F57A7F04DA4FF440
:100BE0007A705649088004E054480088C838534950
:100BF000088051480078401E4F49087050A000F00E
:100C00002FF94E48008800F0F7F84FA000F028F9BF
:100C10004E480078002822DD4848008841F288319B
:100C200088420DDA45480088C830884203DD08460E
:100C30004249088004E041480088C8303F490880A4
:100C400042480078401E414908703DA000F008F974
:100C50003A48008800F0D0F83BA000F001F93C4889
:100C60000078002818DD3B48007808B9012000E032
:100C700000203849087036480078401E3449087012
:100C80003448007818B134A000F0EAF804E0FFF727
:100C900069FF35A000F0E4F83748007800282EDD21
:100CA00035480078401E3449087034A000F0D8F868
:100CB00039A000F0D5F82748007818B138A000F026
:100CC000CFF802E038A000F0CBF839A000F0C8F867
:100CD0000C48007818B139A000F0C2F802E03AA040
:100CE00000F0BEF83BA000F0BBF81448008800F00C
:100CF00083F815A000F0B4F838A000F0B1F810BDEA
:100D00000400002002000020446972656374696F6A
:100D10006E3A20466F72776172640D0A000000001F
:100D2000446972656374696F6E3A205265766572C4
:100D300073650D0A0000000005000020000000207F
:100D400053706565643A20000D0A0000060000201B
:100D500007000020030000204D6F746F723A20528C
:100D6000554E0D0A000000004D6F746F723A20530B
:100D7000544F500D0A000000080000203D3D3D3D4D
:100D80003D204D4F544F5220535441545553203D14
:100D90003D3D3D3D0D0A00004D6F746F723A2000DD
:100DA00052554E0D0A00000053544F500D0A0000DA
:100DB000446972656374696F6E3A2000466F72779A
:100DC0006172640D0A000000526576657273650DEC
:100DD0000A00000053504545443A20003D3D3D3D4A
:100DE0003D3D3D3D3D3D3D3D3D3D3D3D3D3D3D3D33
:100DF0003D3D3D3D0D0A00007CB5044600251CB973
:100E000015A000F02DF87CBD0FE00A2094FBF0F156
:100E100000FB11403030C2B22846691CCDB20DF83B
:100E200000200A2094FBF0F084B2002CEDDC0EE0F0
:100E3000681EC0B205461DF800100848FFF79FFD68
:100E400000BF40210548FFF7CCFC0028F9D0002D59
:100E5000EEDC00BFD7E700003000000000380140A2
:100E600010B504460BE014F8011B0748FFF787FD97
:100E700000BF40210448FFF7B4FC0028F9D02078D7
:100E80000028F0D110BD000000380140AC0E000871
:100E900000000020240000008A090008D00E00088D
:100EA00024000020040400009A090008D007010172
:100EB0000000000000000000000102030401020322
:100EC00004060708090204060800000000000000EC
:0400000508000131BD
:00000001FF
