:020000040800F2
:100000005004002049010008F1020008E90200083C
:10001000ED020008CD010008EF0A00080000000012
:100020000000000000000000000000007D04000847
:10003000D101000800000000650300086905000800
:100040006301000863010008630100086301000800
:1000500063010008630100086301000863010008F0
:1000600063010008630100086301000863010008E0
:1000700063010008630100086301000863010008D0
:1000800063010008630100086301000863010008C0
:1000900063010008630100086301000863010008B0
:1000A00063010008630100086301000863010008A0
:1000B0006301000863010008CD0500086301000822
:1000C0006301000863010008630100086301000880
:1000D00063010008150800086301000863010008B7
:1000E0006301000863010008630100086301000860
:1000F0006301000863010008630100086301000850
:10010000630100086301000863010008630100083F
:10011000630100086301000863010008630100082F
:10012000630100086301000863010008630100081F
:10013000DFF810D000F038F800480047110B000835
:10014000AFF300805004002006488047064800476F
:10015000FEE7FEE7FEE7FEE7FEE7FEE7FEE7FEE777
:10016000FEE7FEE76D0500083101000810B500222A
:1001700000E0521C835C8C5CA34201D1002BF8D1BF
:10018000D8B2E1B2401A10BD30B505460020034692
:1001900000E05B1C934205D2EC5CC85C201A01D1E4
:1001A000002CF6D130BD0000064C074D06E0E0689B
:1001B00040F0010394E8070098471034AC42F6D3AE
:1001C000FFF7BAFFC40D0008E40D000800BFFEE70A
:1001D00070472DE9F041024600250026002000234B
:1001E0000024002791F803C00CF00F0591F803C01C
:1001F0000CF0100CBCF1000F03D091F802C04CEAD7
:10020000050591F800C0BCF1000F31D01468002042
:100210002BE04FF0010C0CFA00F3B1F800C00CEA2F
:1002200003069E4220D183004FF00F0C0CFA03F717
:10023000BC4305FA03FC4CEA040491F803C0BCF18A
:10024000280F06D14FF0010C0CFA00FCC2F814C0C4
:100250000AE091F803C0BCF1480F05D14FF0010C42
:100260000CFA00FCC2F810C0401C0828D1D314605E
:10027000B1F800C0BCF1FF0F34DD546800202EE05F
:1002800000F1080C4FF0010808FA0CF3B1F800C0B7
:100290000CEA03069E4221D183004FF00F0C0CFAAA
:1002A00003F7BC4305FA03FC4CEA040491F803C0CD
:1002B000BCF1280F05D100F1080C08FA0CF8C2F8BF
:1002C000148091F803C0BCF1480F07D100F1080C6D
:1002D0004FF0010808FA0CF8C2F81080401C0828FA
:1002E000CED35460BDE8F08100BFFEE700BFFEE75B
:1002F0007047000070B5002100230F22C47804B3BA
:10030000154C246804F4E064C4F5E064210AC1F1EA
:100310000403CA40447804FA03F18478144021436A
:1003200009010E4C0678A155047804F01F0501243C
:10033000AC4005786D11AD0005F1E025C5F8004130
:1003400009E0047804F01F050124AC40044D067850
:10035000761145F8264070BD0CED00E000E400E0A9
:1003600080E100E07047000029B1064AD2690243EB
:10037000044BDA6104E0034AD2698243014BDA613B
:10038000704700000010024029B1064A92690243FA
:10039000044B9A6104E0034A92698243014B9A61DB
:1003A000704700000010024030B5002100220024F8
:1003B00000232D4D6D6805F00C0121B1042905D0F5
:1003C000082923D105E0294D056022E0274D05606D
:1003D0001FE0254D6D6805F47012234D6D6805F41E
:1003E0008034022505EB92421CB9214D554305602E
:1003F0000BE01D4D6D6805F400351DB11C4D5543D6
:10040000056002E0194D5543056002E0174D056097
:1004100000BF00BF144D6D6805F0F0010909154DCE
:100420006B5C0568DD4045600F4D6D6805F4E0616B
:10043000090A104D6B5C4568DD4085600A4D6D68AA
:1004400005F46051C90A0B4D6B5C4568DD40C56021
:10045000054D6D6805F44041890B074D6B5CC5681F
:10046000B5FBF3F5056130BD0010024000127A00C3
:1004700000093D000000002010000020704710B56A
:1004800000F002F810BD00000CB5002001900090B3
:100490003348006840F480303149086000BF30487C
:1004A000006800F4003000900198401C0190009812
:1004B00018B90198B0F5A06FF1D12948006800F48F
:1004C000003010B10120009001E000200090009861
:1004D000012843D12348006840F0100021490860FA
:1004E0000846006820F0030008600846006840F0F5
:1004F000020008601A484068194948600846406888
:1005000048600846406840F480604860084640689B
:1005100020F47C1048600846406840F4E8104860C9
:100520000846006840F08070086000BF0C48006812
:1005300000F000700028F9D00948406820F003005E
:10054000074948600846406840F00200486000BF24
:100550000348406800F00C000828F9D10CBD0000E9
:1005600000100240002002407047000010B5134800
:10057000006840F0010011490860084640681049D1
:1005800008400E494860084600680E4908400B497B
:1005900008600846006820F480200860084640682B
:1005A00020F4FE0048604FF41F008860FFF767FFEB
:1005B0004FF000600449086010BD000000100240C8
:1005C0000000FFF8FFFFF6FE08ED00E010B5012186
:1005D000324800F0B2F800285ED031480088401C54
:1005E0002F49088008460088322851DB0020088007
:1005F0002C4800682C49096888421FDA2B4800689B
:1006000018B900202A49086042E0264800682749B6
:1006100009680844234908602448006824490860A0
:100620002048006820490968884231DB1E4800687C
:100630001C49086000201E49086029E0194800682C
:1006400019490968884220DD1848006818B9002057
:10065000174908601CE01348006814490968401AEB
:1006600010490860114800684042114908600D486F
:1006700000680D49096888420ADC0B48006809498E
:10068000086000200A49086002E00020084908606C
:100690000121024800F042F810BD000000080040AF
:1006A000140000201C000020180000202000002062
:1006B000240000207FB505460C4601210420FFF7E9
:1006C00053FEADF80850ADF804400020ADF80A0024
:1006D000ADF8060001A9104800F04AF801221146C1
:1006E0000D4800F03BF801210B4800F017F81E20E0
:1006F0008DF8000002208DF8010003208DF8020023
:1007000001208DF803006846FFF7F4FD012102483F
:1007100000F007F87FBD000000080040CA430282D5
:10072000704721B1028842F00102028004E0028891
:100730004FF6FE731A400280704730B50246002023
:1007400000230024158A05EA0103958905EA0104BE
:1007500013B10CB1012000E0002030BD1AB1838933
:100760000B43838102E083898B43838170470000C0
:10077000002202881D4B98420ED01D4B98420BD090
:10078000B0F1804F08D01B4B984205D01A4B9842CD
:1007900002D01A4B984204D14FF68F731A404B88FF
:1007A0001A43174B984207D0164B984204D04FF685
:1007B000FF431A40CB881A4302808B8883850B88BD
:1007C00003850A4B98420BD0094B984208D00E4B38
:1007D000984205D00D4B984202D00D4B984201D162
:1007E0000B7A03860123838270470000002C0140AE
:1007F000003401400004004000080040000C0040AC
:10080000001000400014004000400140004401403E
:100810000048014010B540F22551174800F0A3F8F8
:1008200028B3154800F05AF9C4B20D2C01D00A2C97
:100830000FD11248007800281DDD002110480F4A12
:100840001278815401200F49087000200B4908706C
:1008500011E00D48007850B9084800781D2807DAE3
:1008600006490878411C054A117005490C5402E0FC
:1008700001200549087010BD003801402800002003
:100880002C000020290000202A00002010B586B08E
:10089000044601210420FFF777FD01218803FFF7BB
:1008A00073FD4FF40070ADF8140003208DF81600AE
:1008B00018208DF8170005A91C48FFF78AFC4FF493
:1008C0008060ADF8140004208DF8170005A91748C2
:1008D000FFF77FFC01940020ADF80800ADF80A0096
:1008E000ADF80C00ADF810000C20ADF80E0001A919
:1008F0000F4800F087F801210D4800F01BF8012295
:1009000040F225510A4800F058F825208DF80000E3
:1009100003208DF801008DF8020001208DF80300FE
:100920006846FFF7E7FC06B010BD00000008014074
:100930000038014021B1828942F40052828104E0F2
:1009400082894DF6FF731A4082817047024600206B
:10095000B1F5007F00D100BF13880B400BB101201F
:1009600000E00020704770B50246002400230025F7
:10097000002040F66A16B14200D100BFC1F3421513
:1009800001F01F03012606FA03F3012D02D1968917
:10099000334006E0022D02D1168A334001E0968AE8
:1009A00033400C12012606FA04F41688344013B1C1
:1009B0000CB1012000E0002070BDF0B5034600241A
:1009C00000260025002040F66A17B94200D100BF7A
:1009D0001846C1F3421401F01F06012707FA06F575
:1009E000012C01D10C3004E0022C01D1103000E0C8
:1009F00014301AB107682F43076002E00768AF435D
:100A00000760F0BD2DE9F04786B005460E4600248C
:100A1000A24600BFA1460027B08900B100BF2F4603
:100A20002C8A4CF6FF700440F08804432C82AC8979
:100A30004EF6F3100440B0883189084371890843A9
:100A40000443AC81AC8A4FF6FF400440B0890443B4
:100A5000AC8201A8FFF7A8FC1F48874202D1DDF84D
:100A600010A001E0DDF80CA0A88900F4004040B11E
:100A70000AEBCA0000EB0A1031684900B0FBF1F83C
:100A800007E00AEBCA0000EB0A1031688900B0FBEE
:100A9000F1F86420B8FBF0F004012009642101FBA7
:100AA0001089A88900F4004040B1322000EBC90051
:100AB000B0FBF1F000F00700044308E0322000EB47
:100AC00009106421B0FBF1F000F00F0004432C8109
:100AD00006B0BDE8F0870000003801400146888874
:100AE000C0F308007047C1F308028280704700BF5E
:100AF000FEE702E008C8121F08C1002AFAD17047B9
:100B00007047002001E001C1121F002AFBD170478D
:100B10004FF41650FFF7BAFE41F61F416320FFF76E
:100B2000C9FD07E00448007820B1002002490870A0
:100B300000F004F8F6E700002900002010B53F4857
:100B4000007830B13EA000F031F900203B49087038
:100B500010BD40A000F02AF9404800F027F940A05D
:100B600000F024F908223FA13C48FFF70DFB50B9E3
:100B70003A48083000F0F0F804463D4804603DA0D3
:100B800000F014F9E4E708223EA13448FFF7FCFA2C
:100B900080B93248083000F0DFF80446002C03DA50
:100BA0003BA000F003F904E03C4804603CA000F0E6
:100BB000FDF8CDE73EA12948FFF7D8FA50B93EA08D
:100BC00000F0F4F83E48006800F09AF824A000F025
:100BD000EDF8BDE73BA12148FFF7C8FA50B93BA0AB
:100BE00000F0E4F83B48006800F08AF81CA000F030
:100BF000DDF8ADE738A11948FFF7B8FAC0B938A059
:100C000000F0D4F81A48006800F07AF836A000F036
:100C1000CDF82B48006800F073F835A000F0C6F856
:100C20002C48006800F06CF80DA000F0BFF88FE7CA
:100C300031A000F0BBF800BF8AE700002A000020C6
:100C40004552524F52204F564552464C4F570D0A6F
:100C500000000000434D443A000000002C0000203A
:100C60000D0A00005345545F504F53200000000010
:100C7000180000204F4B205345545F504F530D0A2E
:100C8000000000005345545F56454C200000000012
:100C90004552524F522056454C0D0A00200000206C
:100CA0004F4B205345545F56454C0D0A0000000041
:100CB0004745545F504F5300504F533A00000000D7
:100CC0001C0000204745545F56454C0056454C3AA1
:100CD00000000000240000205354415455530000EC
:100CE0005441524745543A0020504F533A000000B7
:100CF0002056454C3A0000004552524F520D0A0012
:100D00003EB5044600251CB9302000F03FF83EBD3A
:100D1000002C03DA2D2000F039F864420EE00A209E
:100D200094FBF0F100FB11403030C2B22846691C40
:100D3000CDB20DF800200A2094FBF0F4002CEEDC7C
:100D400006E0691EC9B20D461DF8010000F01EF84C
:100D5000002DF6DC00BFDAE710B5014600200022C6
:100D60000B782D2B01D10122491C06E00B78303B7A
:100D700000EB800403EB4400491C0B78302B02DBB2
:100D80000B78392BF2DD02B1404210BD10B504469C
:100D900021460548FFF7A7FE00BF40210248FFF7A4
:100DA000D5FD0028F9D010BD0038014010B504462B
:100DB00003E02078FFF7EAFF641C20780028F8D1D0
:100DC00010BD0000E40D0008000000202C00000011
:100DD000F20A0008100E00082C0000202404000075
:100DE000020B0008000000000102030401020304DA
:100DF00006070809020406080000000000000000C1
:100E000000000000010000000000000000000000E1
:0400000508000131BD
:00000001FF
