:020000040800F2
:10000000280400204901000831030008B502000857
:10001000F502000891010008530B000800000000E1
:10002000000000000000000000000000D1040008F3
:100030009501000800000000B9030008E50500086C
:100040006301000863010008630100086301000800
:1000500063010008630100086301000863010008F0
:1000600063010008630100086301000863010008E0
:1000700063010008630100086301000863010008D0
:1000800063010008630100086301000863010008C0
:1000900063010008630100086301000863010008B0
:1000A00063010008630100086301000863010008A0
:1000B0006301000863010008850600086301000869
:1000C0006301000863010008630100086301000880
:1000D00063010008290800086301000863010008A3
:1000E0006301000863010008630100086301000860
:1000F0006301000863010008630100086301000850
:10010000630100086301000863010008630100083F
:10011000630100086301000863010008630100082F
:10012000630100086301000863010008630100081F
:10013000DFF810D000F01AF800480047750B0008EF
:10014000AFF3008028040020064880470648004797
:10015000FEE7FEE7FEE7FEE7FEE7FEE7FEE7FEE777
:10016000FEE7FEE72506000831010008064C074DB2
:1001700006E0E06840F0010394E807009847103477
:10018000AC42F6D3FFF7D8FFE00F000800100008DC
:1001900000BFFEE770472DE9F0410246002500262A
:1001A000002000230024002791F803C00CF00F0565
:1001B00091F803C00CF0100CBCF1000F03D091F8C3
:1001C00002C04CEA050591F800C0BCF1000F31D027
:1001D000146800202BE04FF0010C0CFA00F3B1F88A
:1001E00000C00CEA03069E4220D183004FF00F0CA2
:1001F0000CFA03F7BC4305FA03FC4CEA040491F83B
:1002000003C0BCF1280F06D14FF0010C0CFA00FC22
:10021000C2F814C00AE091F803C0BCF1480F05D140
:100220004FF0010C0CFA00FCC2F810C0401C08286A
:10023000D1D31460B1F800C0BCF1FF0F34DD5468B5
:1002400000202EE000F1080C4FF0010808FA0CF332
:10025000B1F800C00CEA03069E4221D183004FF0A2
:100260000F0C0CFA03F7BC4305FA03FC4CEA040438
:1002700091F803C0BCF1280F05D100F1080C08FA71
:100280000CF8C2F8148091F803C0BCF1480F07D1F4
:1002900000F1080C4FF0010808FA0CF8C2F81080C1
:1002A000401C0828CED35460BDE8F08141617047FE
:1002B0000161704700BFFEE708B50121042000F08E
:1002C0008DF80320ADF8000010208DF80300032006
:1002D0008DF8020069460648FFF75DFF01210448DA
:1002E000FFF7E4FF02210248FFF7E2FF08BD00002C
:1002F0000008014000BFFEE708B50121042000F01E
:100300006DF80F20ADF8000010208DF803000320D9
:100310008DF8020069460448FFF73DFF00F0F2FC4B
:1003200000200249087008BD0008014009000020B3
:100330007047000070B5002100230F22C47804B379
:10034000154C246804F4E064C4F5E064210AC1F1AA
:100350000403CA40447804FA03F18478144021432A
:1003600009010E4C0678A155047804F01F050124FC
:10037000AC4005786D11AD0005F1E025C5F80041F0
:1003800009E0047804F01F050124AC40044D067810
:10039000761145F8264070BD0CED00E000E400E069
:1003A00080E100E002490143024A11607047000009
:1003B0000000FA050CED00E07047000029B1064A84
:1003C000D2690243044BDA6104E0034AD2698243F2
:1003D000014BDA61704700000010024029B1064A63
:1003E00092690243044B9A6104E0034A9269824392
:1003F000014B9A61704700000010024030B50021A7
:100400000022002400232D4D6D6805F00C0121B160
:10041000042905D0082923D105E0294D056022E0F3
:10042000274D05601FE0254D6D6805F47012234DC2
:100430006D6805F48034022505EB92421CB9214D0C
:10044000554305600BE01D4D6D6805F400351DB189
:100450001C4D5543056002E0194D5543056002E00F
:10046000174D056000BF00BF144D6D6805F0F00129
:100470000909154D6B5C0568DD4045600F4D6D68E1
:1004800005F4E061090A104D6B5C4568DD4085604C
:100490000A4D6D6805F46051C90A0B4D6B5C4568E7
:1004A000DD40C560054D6D6805F44041890B074D81
:1004B0006B5CC568B5FBF3F5056130BD001002400B
:1004C00000127A0000093D000A0000201A000020F6
:1004D000704710B500F002F810BD00000CB5002008
:1004E000019000903348006840F480303149086042
:1004F00000BF3048006800F4003000900198401CB4
:100500000190009818B90198B0F5A06FF1D1294871
:10051000006800F4003010B10120009001E00020DC
:1005200000900098012843D12348006840F0100053
:10053000214908600846006820F00300086008466A
:10054000006840F0020008601A4840681949486095
:100550000846406848600846406840F4806048604B
:100560000846406820F47C1048600846406840F423
:10057000E81048600846006840F08070086000BFDE
:100580000C48006800F000700028F9D00948406865
:1005900020F00300074948600846406840F0020028
:1005A000486000BF0348406800F00C000828F9D1FB
:1005B0000CBD00000010024000200240042808D1B9
:1005C0004FF0E021096941F004014FF0E022116190
:1005D00007E04FF0E021096921F004014FF0E0222B
:1005E000116170477047000010B504466FF00400B9
:1005F000FFF7E4FFE11704EB5171C1F3C701074AAC
:1006000011701046007800EB4001C1EBC0104FF6AE
:10061000FF7101EAC0000249088010BD1E000020E1
:100620002000002010B51348006840F00100114977
:10063000086008464068104908400E49486008466E
:1006400000680E4908400B4908600846006820F41D
:10065000802008600846406820F4FE0048604FF49F
:100660001F008860FFF735FF4FF000600449086005
:1006700010BD0000001002400000FFF8FFFFF6FE72
:1006800008ED00E010B501210B4800F05EF890B1D4
:100690000121094800F04AF80848007810B100F03C
:1006A00083FA01E000F02EFB05480088401E81B26D
:1006B000014800F064F810BD00080040030000206D
:1006C000000000201FB501210420FFF777FE47201E
:1006D000ADF8040013480088401E80B2ADF8080051
:1006E0000020ADF80A00ADF8060001A90E4800F0A0
:1006F00049F8012211460C4800F038F81E208DF808
:10070000000002208DF8010003208DF80200012076
:100710008DF803006846FFF70DFE0121024800F046
:1007200008F81FBD0000002000080040CA430282F4
:10073000704721B1028842F00102028004E0028881
:100740004FF6FE731A400280704730B50246002013
:1007500000230024158A05EA0103958905EA0104AE
:1007600013B10CB1012000E0002030BD1AB1838923
:100770000B43838102E083898B43838170478185AA
:1007800070470000002202881D4B98420ED01D4B7E
:1007900098420BD0B0F1804F08D01B4B984205D047
:1007A0001A4B984202D01A4B984204D14FF68F73DD
:1007B0001A404B881A43174B984207D0164B984261
:1007C00004D04FF6FF431A40CB881A4302808B882F
:1007D00083850B8803850A4B98420BD0094B9842BE
:1007E00008D00E4B984205D00D4B984202D00D4BCD
:1007F000984201D10B7A038601238382704700005F
:10080000002C01400034014000040040000800407A
:10081000000C004000100040001400400040014067
:10082000004401400048014010B540F225512348E2
:1008300000F0CAF8002840D0204800F081F9C4B286
:10084000312C09D11E480078FA2836DA1C48007885
:10085000401C1B49087030E0322C09D1194800783F
:10086000FA282ADA17480078401C1649087024E054
:10087000332C09D114480078FA281EDA124800787F
:10088000401C1149087018E0302C09D10F4800783D
:10089000FA2812DA0D480078401C0C4908700CE068
:1008A000732C01D0532C08D109480078FA2804DAB7
:1008B00007480078401C0649087010BD0038014008
:1008C0000400002005000020060000200700002092
:1008D0000800002010B586B0044601210420FFF76F
:1008E0007DFD01218803FFF779FD4FF40070ADF81D
:1008F000140003208DF8160018208DF8170005A9A4
:100900001E48FFF748FC4FF48060ADF81400042047
:100910008DF8170005A91948FFF73DFC0194002048
:10092000ADF80800ADF80A00ADF80C00ADF8100005
:100930000C20ADF80E0001A9114800F095F8012136
:100940000F4800F028F840210D4800F01BF8012264
:1009500040F225510A4800F061F825208DF800008A
:1009600003208DF801008DF8020001208DF80300AE
:100970006846FFF7DFFC06B010BD0000000801402C
:100980000038014001F40072B2F5007F00D100BFD1
:10099000CA430280704721B1828942F400528281A9
:1009A00004E082894DF6FF731A4082817047024647
:1009B0000020B1F5007F00D100BF13880B400BB1C0
:1009C000012000E00020704770B50246002400239B
:1009D0000025002040F66A16B14200D100BFC1F3E5
:1009E000421501F01F03012606FA03F3012D02D17F
:1009F0009689334006E0022D02D1168A334001E089
:100A0000968A33400C12012606FA04F41688344004
:100A100013B10CB1012000E0002070BDF0B5034619
:100A2000002400260025002040F66A17B94200D1B4
:100A300000BF1846C1F3421401F01F06012707FA50
:100A400006F5012C01D10C3004E0022C01D110304C
:100A500000E014301AB107682F43076002E007680E
:100A6000AF430760F0BD00002DE9F04786B00546B2
:100A70000E460024A24600BFA1460027B08900B15F
:100A800000BF2F462C8A4CF6FF700440F0880443C8
:100A90002C82AC894EF6F3100440B08831890843AB
:100AA000718908430443AC81AC8A4FF6FF4004408F
:100AB000B0890443AC8201A8FFF7A0FC1F4887421D
:100AC00002D1DDF810A001E0DDF80CA0A88900F447
:100AD000004040B10AEBCA0000EB0A10316849003F
:100AE000B0FBF1F807E00AEBCA0000EB0A1031682E
:100AF0008900B0FBF1F86420B8FBF0F00401200994
:100B0000642101FB1089A88900F4004040B1322023
:100B100000EBC900B0FBF1F000F00700044308E06F
:100B2000322000EB09106421B0FBF1F000F00F005F
:100B300004432C8106B0BDE8F08700000038014076
:100B400001468888C0F308007047C1F3080282801C
:100B5000704700BFFEE702E008C8121F08C1002A64
:100B6000FAD170477047002001E001C1121F002A2E
:100B7000FBD170474820FFF737FD4FF4A060FFF727
:100B800011FCFFF799FB4FF41650FFF7A3FEFFF798
:100B9000B3FBFFF797FD01200249087001E000F068
:100BA000C3F8FCE70300002052480078002850D02A
:100BB0005148007830B1012813D002281FD00328F3
:100BC0003AD12AE001204D49086000204C49C1F883
:100BD000840101204949083108604949C1F88C0164
:100BE0002AE00120454908604549C1F8840143498C
:100BF0000831086000204249C1F88C011CE0002047
:100C00003E49086001203E49C1F884013B49083152
:100C100008603B49C1F88C010EE0012037490860AB
:100C20003749C1F8840100203449083108600120A7
:100C30003349C1F88C0100BF00BF2F480078401C29
:100C40002D49087008460078042852DB00200870FF
:100C50004FE02948007830B1012813D002281FD076
:100C600003283AD12AE00120244908602449C1F828
:100C70008401002021490831086001202049C1F881
:100C80008C012AE000201D49086001201C49C1F8A0
:100C900084011A49083108601949C1F88C011CE027
:100CA0000120164908601649C1F88401134908312A
:100CB000086000201249C1F88C010EE001200F49A4
:100CC000086000200E49C1F8840101200B49083159
:100CD00008600B49C1F88C0100BF00BF06480078CE
:100CE000401C0549087008460078042801DB0020F4
:100CF0000870704702000020090000208001214296
:100D0000000021420020064908600649C1F884011C
:100D10000349083108600349C1F88C01704700009D
:100D2000800121420000214210B55A480078002875
:100D300016DD5948007808B9012000E00020564926
:100D4000087054480078401E524908705248007894
:100D500018B152A000F02EF902E056A000F02AF9D6
:100D60005A480078002823DD59480088B0F57A7F7A
:100D70000FDD57480088C838B0F57A7F04DA4FF4A1
:100D80007A705349088004E051480088C8385049B7
:100D900008804E480078401E4C4908704DA000F075
:100DA00009F94B48008800F0D3F84CA000F002F994
:100DB0004B480078002822DD4548008841F2883100
:100DC00088420DDA42480088C830884203DD084670
:100DD0003F49088004E03E480088C8303C4908800C
:100DE0003F480078401E3E4908703AA000F0E2F803
:100DF0003748008800F0ACF838A000F0DBF839483C
:100E00000078002818DD3848007808B9012000E093
:100E100000203549087033480078401E3149087079
:100E20003148007818B131A000F0C4F804E0FFF7B1
:100E300069FF32A000F0BEF834480078002828DDB1
:100E400032480078401E3149087031A000F0B2F8F5
:100E50002548007818B125A000F0ACF802E027A0E2
:100E600000F0A8F80C48007818B10CA000F0A2F827
:100E700002E010A000F09EF82CA000F09BF81448AF
:100E8000008800F065F815A000F094F829A000F0A3
:100E900091F810BD04000020020000204469726532
:100EA0006374696F6E3A20466F72776172640D0ADF
:100EB00000000000446972656374696F6E3A2052E5
:100EC0006576657273650D0A00000000050000205C
:100ED0000000002053706565643A20000D0A000090
:100EE0000600002007000020030000204D6F746FF3
:100EF000723A2052554E0D0A000000004D6F746F7B
:100F0000723A2053544F500D0A0000000800002090
:100F10003D3D3D3D3D204D4F544F52205354415493
:100F20005553203D3D3D3D3D0D0A00005350454584
:100F3000443A20003D3D3D3D3D3D3D3D3D3D3D3D37
:100F40003D3D3D3D3D3D3D3D3D3D3D3D0D0A0000AE
:100F50007CB5044600251CB914A000F02BF87CBD1C
:100F60000FE00A2094FBF0F100FB11403030C2B2D8
:100F70002846691CCDB20DF800200A2094FBF0F041
:100F800084B2002CEDDC0DE0681EC5B21DF8051022
:100F90000748FFF7DAFD00BF40210548FFF707FDCE
:100FA0000128F9D1002DEFDC00BFD8E730000000A8
:100FB0000038014010B504460BE021780748FFF7E0
:100FC000C4FD00BF40210548FFF7F1FC0128F9D11D
:100FD000641C20780028F0D110BD000000380140CA
:100FE000001000080000002024000000560B00083C
:100FF000241000082400002004040000660B0008F0
:10100000D007010100000000000000000000010204
:10101000030401020304060708090204060800008D
:0410200000000000CC
:0400000508000131BD
:00000001FF
